:020000040000fa
:10000000f83f00207d180000270d0000af10000011
:1000100000000000000000000000000000000000e0
:10002000000000000000000000000000d7090000f0
:100030000000000000000000d7090000d709000000
:10004000d7090000d7090000d7090000d709000030
:10005000d7090000d7090000d7090000d709000020
:10006000d7090000d7090000d7090000d709000010
:10007000d7090000d7090000d7090000d709000000
:10008000d7090000d7090000d7090000d7090000f0
:10009000d7090000d7090000d7090000d7090000e0
:0c00a000d7090000d7090000d7090000b4
:020000040000fa
:1000ac00f8b5c046f8bc08bc9e4670475d18000009
:1000bc00f8b5c046f8bc08bc9e4670473518000021
:020000040000fa
:0800cc00780b000001000000a8
:020000040000fa
:1000d4000023f0b506001500afb005910193059912
:1000e4000b78002b00d10fe101235b420a930eab86
:1000f40000240c93802309940b940d930b5d002b27
:1001040001d0252b2ad1002c06d02200300001f08a
:100114006bfd059b1b190593059b1a78252a00d0b6
:10012400e7e0013302930593022310219c4608273c
:10013400059803782b2b1bd025d8202b1bd0232be1
:100144001dd02a2b2ad001f0fffb0b90059b1a78b7
:10015400303a092a33d801330593f7e70134cde760
:100164000122099b80180393134309930590dfe749
:100174000423099a0ee0099b03933b430be0099b7c
:1001840003930b4307e02d2bead0302bd9d16246e1
:10019400099b0393134309930130e7e72b6801306c
:1001a4001a1d1b6805902a600b93002b07da099a25
:1001b4005b420392012203990b934a400992099be3
:1001c400da0702d5022293430993059b1a782e2a53
:1001d4000ed10022581c0a9205905a782a2a28d156
:1001e400023305932b681a1d1b682a6003930a9334
:1001f40005a801f02ffd059b0700187801f048ffc2
:10020400692800d183e035dc632800d1d6e01bdc0b
:10021400252800d1dfe0612859d0252306aa1370d0
:10022400029b0593002309930b93013b0a9302332a
:10023400b2e001f089fb0a90059b1a78303a092a4a
:10024400d6d801330593f7e7642860d06728e4dc47
:100254002a00390006a801f08bfd002800d1a9e08e
:10026400059b09a95a1c05921b7806aa300001f0c7
:1002740042ff3de0702800d17de016dc6e2800d1fd
:1002840091e06f28c9d12b000022390006a800f0a4
:10029400affd002800d18de0059b06aa013309a912
:1002a4003000059301f07ef822e0752840d07828cc
:1002b4004fd07328b1d1802f00d07be0059b2a68f2
:1002c40001330593131d2b601268002364e02a0098
:1002d400390006a801f04cfd002800d16ae0059b16
:1002e40009a95a1c05921b7806aa300001f003ffe5
:1002f4002418019b1c19a34200dc74e04f223b4be1
:100304001a6001235b42019301982fb0f0bd2b00ca
:100314000122390006a800f06bfd00284ad0059b95
:1003240006aa013309a93000059300f01bfedfe79c
:100334002b000022390006a800f05afd002839d00d
:10034400059b06aa013309a93000059301f07ef943
:10035400cee72b000022390006a800f049fd002852
:1003640028d0059b5a1c05921b7806aa09a93000bf
:1003740000f0ccfbbce72b000022f02106a800f023
:1003840037fd002816d0059b079a01330593069b79
:10039400134306d1164a163209a9300001f0aaf90e
:1003a400a6e77823e1e7019b39001a1906a82b0078
:1003b40001f02ff8059b013305939ae7802ff9d1bb
:1003c400059b013305932b681a1d1b682a6006aa36
:1003d40013700123e0e7802fecd1059b06aa0133bb
:1003e40005931070f5e7019479e6c046980600205d
:0403f4000c1f0000da
:020000040000fa
:1003f800680600201c00000000000000a006002085
:1004080002000000000000008c060020040000002c
:10041800000000009006002004000000000000001a
:10042800180600205000000000000000a40600206c
:100438006c00000001000000b0060020ac0600209f
:10044800b006002000000000250000000800002081
:100458000004000000000000000000000000000090
:100468000000000000000000000000000000000084
:1004780000000000ff200000000000000000000055
:1004880000000000000000007f14000000000000d1
:100498000000000000000000000000000000000054
:1004a8000000000000000020080400000000000018
:1004b800700700202000000001000000010000007b
:1004c8000300000000000000000000000000000021
:1004d80000000000000000008406002084060020c0
:1004e800080000000000000094060020040000003e
:1004f8000000000098060020040000000000000032
:10050800080400201002000000000000100700206e
:10051800600000000100000001000000030000006e
:1005280000000000000000000000000000000000c3
:10053800000000009d150000000000000000000001
:1005480000000000c9200000c71a000000000000d9
:100558000000000000000000000000000000000093
:100568000000000000000000000000000000000083
:1005780000000000000000009c06002004000000ad
:100588000000000000000000000000004444444453
:020000040000fa
:1005980008d1002806d1f54204d801d3002a01d198
:1005a8006d0d09d10020c143090dc904f0bdf9d171
:1005b8001242f7d1640df5d00020c143490549081e
:1005c800a6e000206146f0bdf0b50127ff070e0048
:1005d8005e403e40b446be0a4c18dd18f442d7d2fd
:1005e800f542e4d2640decd06d0dead06419c9026d
:1005f8003943460dc0023143db023b43db0a10b4ea
:100608008e4685b297b26f43140c6c433e0ca41906
:10061800260c2404bfb227439cb26c43a419190cbe
:100628006943250ca4b249190d04090c6419000c7e
:1006380095b245433e0c76193743bfb2360c150cbc
:100648004543ad19a6b2240cad192e0437432e0c20
:1006580036199db24543ad19acb22e0c89191d0c43
:1006680045436d182e04290c3443704680b295b268
:1006780045433e0c76193743bfb2360c150c45433b
:10068800ad19a6b2ad19240c2e0437432e0c361919
:100698009db24543ad19acb22e0c89191d0c4543ca
:1006a8006d182e043443290c75462d0c90b26843fe
:1006b8003e0c80190604bfb23e43070ca0b23f1897
:1006c800120c6a43d019020c80b2240ca4189ab2f6
:1006d8006a43121914042043120c89181b0c6b432b
:1006e800c91810bc01273d05294203d1b61940415c
:1006f8004941013cff077d0d013d641b0bdb6d008b
:10070800ac4209da240500254208be41684161412e
:0a07180066463143f0bd54e74ee79a
:020000040000fa
:0207220070471e
:020000040000fa
:10072400f0b587b0039003a801f02ef9002802da8f
:10073400002007b0f0bd039b1b095d1e202d09d9c5
:100744004f49023b4f4a8b4224d8db08d318043b61
:100754001d7801352a000120002101f02ffc00241e
:1007640043428c4100930194474f00983a687b6858
:100774001040020001990b401a433fd1039b05a886
:100784001033059301f032fc002809d10c223f4bb1
:100794001a60cee7db09d318043b1d781135d9e77d
:1007a4003b490c68a04206d0059b0400103b05930e
:1007b4000123103483600125059be2180a602b4352
:1007c400083a083c28c26360002cb1d0200001f034
:1007d4005bfa00280bd023686168ab43e31a5a68bc
:1007e400aa4352185a606168a94362501c00200051
:1007f400039901f037fb200008309ae7214a254984
:100804003c32002831d1584203404b43db0ed65cc6
:100814002036300001f04afb731cdb00fc58083b17
:10082400fb189c42a0d0272e25dd0235ae4201dc08
:100834003f2e20d101226368039f9343dd1b2800d0
:10084400009301f03ff9864215d1e268a168e319eb
:10085400da60996093609a68d360012217431f603d
:100864005d60009be5506760c1e7434203404b4332
:10087400db0ed65ccde73100200000f08bffb6e73d
:10088400ff0100004015000010040020980600201d
:080894000804002029e66b07af
:020000040000fa
:10089c000122d20703004b403dd430b4431a01d29d
:1008ac00c01ac9184b004400240eff2c29d0002c70
:1008bc0024d01b0e20d0e31a182b1ddc0902114387
:1008cc00c40d000210435d4219350a00aa40d2093a
:1008dc00d940451801d36d080234013ce405280abf
:1008ec000121c9072d062a438a4160414100090ea6
:1008fc00ff2901d3c00dc00530bc7047c00fc00725
:10090c00fae742001823da41ff2af5d07f200001d4
:10091c000c300005f0e7a4465140431a02d2534074
:10092c00c01ac9184b00090211431b0e4400240eb7
:10093c00ff2c41d0002b10d05b421b19012b10d384
:10094c0022d1c30d4002401a10d3db050100400a2e
:10095c00c90591415841644670472442fbd100209f
:10096c00f9e7c30d40024900401af4d000210131cf
:10097c004000fcd38c4204d95b1adb05400ac0183a
:10098c00e9e7180ac007e6e7192be4d801330c0095
:10099c00d940dc414c40012c4941c30d00021043ad
:1009ac00441a01d4a4006408013bdb05200a240688
:1009bc009441584164467047ff2b01d04102cad084
:0a09cc007f2000010c300005c5e794
:020000040000fa
:0209d600fee73a
:020000040000fa
:1009d800f8b5002000f004ff01f0cafa3b4d2fe003
:1009e8003b4a3c4b3000390001f00cf8002852d04b
:1009f800394a3a4b3000390001f023f800284ad030
:100a08008223db05802292049a6152085a61920976
:100a18005a61201c01f034f8060001f00efa011c9e
:100a2800201c01f013fb00f06bff00222c4bfff79a
:100a3800cbfd01f0f3f8020031002a4801f024fa56
:100a480001f038fb284b188001f03efa291c00f011
:100a58002cfa264900f0ddfa041c254b186000f03a
:100a68004fff06000f001a4a224b00f0cbff002868
:100a7800b6d0194a204b3000390000f0e2ff0028b8
:100a8800aed08223db058022d2029a61d2015a615c
:100a980052085a61bde7104a184b3000390000f07f
:100aa800b1ff0028b5d0164a164b3000390000f0c7
:100ab800c8ff0028add08223db05802252049a614a
:100ac80052005a61d2095a61a3e7c04633335340f2
:100ad8003333333333330340cdcccccccccc04408c
:100ae80000005940f01e0000a006002000f07f45dd
:100af8008c06002033330740cccc0840ccccec3fec
:080b08009a9999999999f13f1e
:020000040000fa
:100b1000f0b58fb00d934b680c9006938b680d0069
:100b20000793cb6816000393069b0f68002b44dbea
:100b300002239f4310233b400a93079b04930a9b85
:100b4000002b07d0726833681343079a02d0130052
:100b5000023b049308233b400b935a1e9341049a93
:100b6000d31a04933368039a0893736809932b6923
:100b70005c1e00231355069b0593012c20dc0a9b69
:100b8000002b52d10b9b002b03d02023039a013c56
:100b900013552b6900975a1e039b121b19190c98a9
:100ba000079b00f08bfb0c9b5b68db0503d56b6838
:100bb000984200da18000fb0f0bd01230693b9e7a0
:100bc000089b099a13430cd1059b002b09dc069a5c
:100bd000049b9b1a059a9b18002bd0dd02231f4211
:100be000cdd00f22089b013c134018005730092b31
:100bf00001dc303318000d9b413b192b06d8202314
:100c00000343613b192b01d801f04bfa039b1855a4
:100c1000059b013b0593099b1a07089b1b091a4377
:100c2000099b08921b090993a7e70cce1343a9d08f
:100c3000039b0d9a1b19013b1a703023039a023c47
:040c400013559fe7c2
:020000040000fa
:100c4400f0b5060085b00f0015001c008b4265d876
:100c540001d1824262d82100280001f0bbf9390099
:100c64000090300001f0b6f9009b21001b1a1a0015
:100c74002800039301f0a2f900900191019bbb426b
:100c840046d802d1009bb34242d8009b019c039af0
:100c940001200021f61aa74101f090f9039b002bd3
:100ca4002fd0019b009adb0754081c43019b5d086d
:100cb400039b9c46bd422ed801d1b4422bd83200ae
:100cc4003b00121bab41012692185b410027b6186a
:100cd4005f4101235b429c446346002bead18019a7
:100ce4007941039a04000d003000390001f05af9eb
:100cf400039a06000f0001f061f9241a8d412000c7
:100d040029000a9b002b01d01e605f6005b0f0bd76
:100d140000200021c2e7b6197f41dae70020002154
:020d2400efe7f7
:020000040000fa
:020d2600fee7e6
:020000040000fa
:100d2800f7b5002858d00838436801221e009643ba
:100d380085192a680400934200d0ffde01276b68fa
:100d4800226813403b420ed1200000f09bff002890
:100d580043d1280000f0ddff0028f0d06b68bb43ca
:100d6800f618ed18ebe73b003343636030002b6067
:100d780000f0a6fe019001f097f86b682268134016
:100d88003b42e1d0184b019a1868596801f008f9fc
:100d9800384212d1019a0120002101f00df90b000f
:100da800002804d0104a126802430f480260002b42
:100db80003d00d4a53680b435360019b0a4a013321
:100dc800db00d3181a005b68083a66602e60e3609f
:100dd800a260d460e3689c60f7bd2368bb43e41a53
:0c0de8006368bb43f618b4e71004002059
:020000040000fa
:100df40010b588293cd015dc81294dd003dc80292d
:100e04004ad0002010bd822911d08429f9d1196853
:100e1400002a26d00a1d1a6000228b5e0360db17ad
:100e2400436011e0a02930d010dc9029e9d1196881
:100e34000724002a2ed00919a1430a0008321a6097
:100e44000b684c68036044600120dbe7c02901d0d3
:100e5400f029d6d11a68111d1960136803600023a4
:100e6400dee70c1d1c600b689bb203604260ebe77d
:100e74001968002a04d00a1d1a600023cb56cde756
:100e84000c1d1c600b68dbb2efe71a68111d1960ba
:100e94001368c3e70731cfe71968002a03d00a1d96
:0e0ea4001a600b68bae70c1d1c600b68dde7d6
:020000040000fa
:100eb20030b405004d400124e407254042004b00b8
:100ec200120e32d01b0e3cd0ff2a33d0ff2b3fd064
:100ed200d21800022043000a09022143090ac4b2bf
:100ee2004c43000ac3b24b43000a4843210a5b1831
:100ef200190a091801d44900013a080a7f3a2adb83
:100f0200fe2a0fd2d2051c43240601d0012421431c
:100f1200c9b280295041802901d1400840002843ac
:100f220030bc7047ff20c005f9e71b0eff2b0ad02b
:100f32002800f5e7400206d1ff2bf3d1490202d186
:100f4200f0e7ff2af4d17f2000010c300005e7e72b
:100f52004902f8d1e6e743020132e9d15b120233da
:060f6200e6d9d805e4e722
:020000040000fa
:100f6800f0b54b6889b005930b6807009c4607935a
:100f7800cb680c008e68049310685168cd0f44d07c
:100f88000b000200002150429941059b002b08db11
:100f98000222634693430793002d02d1079b5a0709
:100fa8002ad5731e07aa02920a22009301920b0007
:100fb8000200200000f001f9002d02d1079b5a071a
:100fc8001ed501382d23002d00d1023b049a13545d
:100fd80023695a1e049b121a1918079b380000939c
:100fe800330000f067f97b68db0503d56368984236
:100ff80000da180009b0f0bd1b07db0ff31ad1e7c0
:101008001b07e5d501382023e0e7059b002bbfda55
:02101800c4e72b
:020000040000fa
:10101a0030b405004d400124e407254042004b004e
:10102a00120e26d01b0e34d0ff2a2dd0ff2b35d01e
:10103a00d21a000220430902214343084908a00d9d
:10104a005b1a02d2013a5b005b185b008b4200d349
:10105a005b1a4041f9d37f3222ddff2a06d2d2053c
:10106a00c91a8b425041284330bc7047ff20c00543
:10107a00f9e71b0e03d0ff2b12d1490210d07f20b3
:10108a0000010c300005efe74002f8d1ff2bedd14b
:10109a00f5e7ff2aead14002f1d1e7e74902eed1aa
:0410aa002800e1e752
:020000040000fa
:0210ae00fee75b
:020000040000fa
:1010b0001c4b5a6852031b68db0c13439b029b0ab0
:1010c000194a936300235375110004228b691a4255
:1010d000fcd115491022cb681a42fcd0134b0022d8
:1010e0009a611a61124b134a1a62190004224b6862
:1010f0001a42fcd10e4ad0234021d1501000903129
:10110000402243581a42fcd0094af0234021d150d2
:101110001000b031402243581a42fcd0064b074a17
:10112000da61704720608000001000400014004029
:10113000001c0040060101000008004004000200fd
:020000040000fa
:10114000f0b51600050002278369426987b0029353
:10115000d31a03939b1904910596019302ac3a00ac
:101160002100286800f059fe019b984208d1ab6825
:10117000ea68ab619a18aa626b61300007b0f0bdf3
:1011800000280cda102200236968ab620a43ab61c5
:101190006b616a60022f12d06368f61aede7019b5b
:1011a0001b1a01936368984202d9c01a0834013fa0
:1011b00023681b1823606368181a6060cfe71e005d
:0211c000dbe76b
:020000040000fa
:1011c200f0b5050085b019000c9b100001931a6858
:1011d2002b696c68013bef681d00002c00da0124ca
:1011e2000026fe540a9e0123361b02960226164052
:1011f2000b9ad2170392002d04dc002b17d0280083
:1012020005b0f0bd02000a4307d1002c05dc029aaa
:101212001219002af1dd002eefd00b9a039b00f089
:10122200d4fb013d130030327a55013ce3e7102331
:0e123200019a12689a431300019a1360dfe7d5
:020000040000fa
:10124000f8b5846a05000f001600002c0ad0ab6abe
:101250006a699b1ab3420cd2320039002800fff7aa
:101260006fff05e000f07afe03002000002beed0b7
:10127000f8bd002ef0d02b0034331b785bb2002b6e
:101280001adb3400dbb2621eb95c994212d1220033
:1012900039002800fff754ffa042e9d33f19341b5f
:1012a00022003900686900f0ccfe6b6930001c191f
:0c12b0006c61dde7141ee6d13400f1e7ac
:020000040000fa
:1012bc00f0b51d00012389b014000e9a06001a40e7
:1012cc000391029201d1a5420ad822000399300061
:1012dc0000f086fca54203d82500280009b0f0bd1b
:1012ec002f1b01973a00102f00d91022202104a89f
:1012fc0000f0b2fe019b0f2b0ed80f2204a93a402e
:10130c00300000f06dfc029b002be6d1220003990b
:10131c00300000f065fce0e7102204a9300000f07a
:0a132c005ffc019b103b0193e4e716
:020000040000fa
:021336007047fe
:020000040000fa
:101338000021f0b5174b184a934208d30027174ae3
:1013480013685168002b05d1002903d1f0bd19702d
:101358000133f1e7100095680c305c18002d16d0a9
:101368000b25ed1a5219a3420ad10b000322134090
:101378005a1e934189085918890040180200dfe76e
:101388005d1cae5c1e702b00ede71f700133a3429d
:10139800fbd1f3e70000002000000020f803000064
:020000040000fa
:1013a800f0b50b680c008f68cd68496887b00600f7
:1013b8000593002902db02218b43059305a9536895
:1013c800126802910821009701912000fff7f5fead
:1013d800059bdb0602d5302301382b54059b1b07e0
:1013e80002d5202301382b54236929185a1e059b3e
:1013f800121a009330003b00fff75cff7368db05af
:0e14080003d56368984200da180007b0f0bd03
:020000040000fa
:1014160010b584291fd007dc812915d0822922d056
:10142600802911d0002010bd90291cd008dc882905
:10143600f8d119680c1d1c600b6803601a7010e067
:10144600a02901d0c029edd119680c1d1c600b68bc
:1014560003601a6005e019680c1d1c600b680360c8
:101466001a800120dfe719680c1d1c600b680360f9
:081476001a60d2175a60f4e776
:020000040000fa
:10147e007fb51600c2680d0013000091591e8b41f6
:10148e00f31a0193836804000392694602220068ee
:10149e00029300f0a7fc002808dc18220823024063
:1014ae005340626813436360060010e0019b834261
:1014be00fad2a268c01ae3681018e2632064002b07
:1014ce0005d0531ce3631378ad19013d2b7030002a
:0414de0004b070bd29
:020000040000fa
:0214e200704751
:020000040000fa
:1014e40000230e4a10b513600d4a13600d4a1360b1
:1014f4000d4a13600d4a13600d4a536213610133a0
:10150400936000f0bdfdfff7eaff0a4c0a4b9c42d2
:1015140000d310bd08cc9847f8e7c04694060020d5
:101524002406002020060020180600201c060020a7
:0c15340028060020b8000000bc000000e9
:020000040000fa
:101540002021222324242525262627272828282849
:10155000292929292a2a2a2a2b2b2b2b2c2c2c2ce3
:101560002c2c2c2c2d2d2d2d2d2d2d2d2e2e2e2eab
:101570002e2e2e2e2f2f2f2f2f2f2f2f0001170221
:101580001d1813031e1b190b1408040d1f161c1223
:0c1590001a0a070c1511090610050f0eb1
:020000040000fa
:10159c0070b504000d00002801d1002070bd436817
:1015ac009b0607d543698269934215d80023a36231
:1015bc00a3616361e16b236c994204d2c91a0122c5
:1015cc00206800f09bfd00232364e3639d42e4d07c
:1015dc00206800f089fde1e70022c36a11009847fa
:0c15ec006369002be2d101204042d7e7e8
:020000040000fa
:1015f80070b504000d000020002c21d000f0a0fbe5
:10160800002d18d000200f4a0421072605e0138d6d
:1016180023800234013085420ed0137e0b42fcd069
:10162800538b334208d153683340012befd0138dcd
:1016380023700134eee72800281a45426841c0b2f9
:0816480070bdc046000800421d
:020000040000fa
:10165000f0b50b680c008f68cd68496887b006004c
:101660000593002902db02218b43059305a95368ea
:10167000126802910a21009701912000fff7a1fd55
:10168000236929185a1e059b121a009330003b004b
:10169000fff714fe7368db0503d56368984200da30
:0616a000180007b0f0bdc8
:020000040000fa
:0216a60070478b
:020000040000fa
:1016a800114b01221a7019000b8c1342fcd10f4bfd
:1016b8001b681a02e021c9000a409b065b0f1a4307
:1016c800094b9a8502225a7001325a7302329a7073
:1016d80000221a8104325a8107229a711a00138c47
:1016e8009bb2002bfbd17047004400422060800071
:020000040000fa
:1016f800f0b50f0087b0039015001049072204a821
:101708001c0000f09afcbb687e6802933f68002dbd
:1017180000d104ad002c03d1280000f0a7fc040080
:10172800002e02dbb44200d934000097029b22004d
:1017380029000398fff7befd07b0f0bdec200000bc
:020000040000fa
:1017480070b5040016001d00022a1cd043689b06d1
:1017580019d4002908d1002d01d18025ed002800d9
:101768000830fef7dbff010020236268a160134305
:1017780063602300e5603433ff22012e00d10a2282
:101788001a70024be362002070bdc046411200008f
:020000040000fa
:1017980070b5c668856804000a00ae4211d1012000
:1017a800002100f009fcc043c943431c03d00b4b84
:1017b8001a68104018604b1c03d0084a5368194037
:1017c8005160012319006268b56011439a43ee60c5
:1017d8006160a41822681343236070bd10040020c0
:020000040000fa
:1017e80010b50f4b06225a600e4b1b681868002173
:1017f80000f01afc0c4b1b681868002100f014fc60
:1018080000f0d4f9fff750fc00f04efc00f0b2f9fc
:10181800fef783fffff744ff00f057fc10bdc046fa
:0c18280000400041a80600208c070020b2
:020000040000fa
:1018340010b5064c2378002b07d1054b002b02d0a2
:10184400044800e000bf0123237010bd6806002097
:101854000000000000000000044b10b5002b03d072
:101864000349044800e000bf10bdc046000000006a
:081874006c06002000000000da
:020000040000fa
:10187c0010b50a4b98470a4b984700f028fc094bc7
:10188c00ff229343084a9360084b9847084b9847ac
:10189c00084b9847fff79af8fee7c046371300004d
:1018ac00371300000000000000ed00e0e51400001c
:0818bc00371300003713000090
:020000040000fa
:1018c40030b5002818d0002918d00d4a0124072566
:1018d40004e003881385023000290bd00139137efc
:1018e4002342fcd053682b40012bf2d0037813859c
:1018f4000130f1e7012030bd0020fce70120fae7c8
:041904000008004295
:020000040000fa
:1019080041008c46012212068a420bd80909382365
:101918001b06c918c30fdb07194340076346da42a1
:1019280004d27047c10fc9070020704703d138237c
:101938001b06c918704738231b06c9180122d20490
:041948001143704790
:020000040000fa
:10194c00030010b51a78202a0dd01100093904298a
:10195c0009d900212b2a02d02d2a01d101310133c2
:10196c0000200a2404e00133ece760430133801ac1
:10197c001a78303a092af8d9002900d1404210bd12
:020000040000fa
:10198c000c4a036810b5546a0b4a591e121b91423b
:10199c000bd9002b05d00c220120084b40421a60b9
:1019ac0010bd102202600020fae70f221733934378
:1019bc000360f8e728060020efffff7f9806002061
:020000040000fa
:1019cc00002b11d1002a0fd1002900d1002802d000
:1019dc000021c943081c07b4024802a14018029018
:1019ec0003bdc0461507000003b4684601b5029854
:1019fc00fff722f9019b9e4602b00cbc7047c04613
:020000040000fa
:101a0c0030b401256d054c00e54215d85c00e5426b
:101a1c0012d80c001c436400044314430cd005d2b0
:101a2c0082428b418041404230bc70479042994188
:0e1a3c008041404230bc7047002030bc7047f3
:020000040000fa
:101a4a0030b401256d054c00e54215d85c00e5422d
:101a5a0012d80c001c436400044314430cd005d272
:101a6a00904299418041404230bc704782428b414a
:0e1a7a008041404230bc7047002030bc7047b5
:020000040000fa
:101a88004200110e7f390fd40123db0749421f3171
:101a98000cdd400003d2c0011843c8407047c001a4
:101aa8001843c8404042704700207047ff2109068c
:0e1ab8008a4200d99843184000d4d8437047a2
:020000040000fa
:021ac600704767
:020000040000fa
:101ac8000309013b1800202b07d90a4a934205d87d
:101ad8000948db08c318043b18787047e0223f2008
:101ae80052019342f9d80448db09c318043b18781b
:0c1af8001030f2e7ff0100004015000074
:020000040000fa
:101b04001c2101231b04984201d3000c10391b0a29
:101b1400984201d3000a08391b09984201d30009ed
:101b2400043902a2105c40187047c0460403020244
:0c1b3400010101010000000000000000a1
:020000040000fa
:101b400070b50b000c00150000290bd0131e09d036
:101b5000022806d8084b002b06d01100200000e018
:101b600000bf2b00180070bd8e182078013400f0e3
:0c1b7000e8f9a642f9d1f4e700000000fb
:020000040000fa
:101b7c000a4b0b4a1a600b4a9a81c02292025a6095
:101b8c001a00d369002bfcd1044a136802210b43c1
:101b9c001360d369002bfcd17047c046000800428b
:081bac00040110402bf6ffffbd
:020000040000fa
:101bb4008223db05c12292041a60012240215a5477
:101bc40001315a5401315a5401315a5400220f310f
:101bd4005a5406315a5401315a54303226399954e0
:081be4000132223999547047c7
:020000040000fa
:101bec00436870b50400d80510d52569954200d915
:101bfc0015002a00606900f01efa226963695b19fe
:101c0c00551b0022636125611a7070bddb06fcd484
:081c1c00200000f0fdf9f8e7db
:020000040000fa
:101c2400f4464a1805d200f061f801d5c0174008ff
:101c3400604701235b05d34206d200f057f801d573
:101c44000120c0074042604701d10042f5d0d017bf
:041c5400400870478d
:020000040000fa
:101c5800f0b5050000200a4c4200165d002e02d1a6
:101c6800a2185078f0bd296801300f78c0b2b74289
:101c780003d1a2180131507829600a28ecd9f1e77c
:041c88000c1f00002d
:020000040000fa
:101c8c00f8b5050001262c68344201d000200ee086
:101c9c002000fff713ff070000f004f92868a042aa
:101cac00f1d1b043281a3900fff770fd0120f8bdbf
:020000040000fa
:101cbc00084b02001968002901d1074919601868fe
:101ccc00064982188a4201d81a60704701204042a6
:101cdc00fbe7c0469c0600209807002098090020ce
:020000040000fa
:101cec004a0010d2520d03231b02ff33d21a0ad41e
:101cfc0052421f3209d4400dc90208430123db07ad
:0e1d0c001843d040704700207047d017704732
:020000040000fa
:101d1a00f8b5050001276c683c4201d000200de0af
:101d2a002000fff7ccfe060000f0bdf86b68a34266
:0e1d3a00f1d128003100fff72afd0120f8bd8d
:020000040000fa
:101d4800094b5b8b5b070dd0074b80221a76793adb
:101d58005a831b7e5b0705d5034b04211a8d1a7e17
:0c1d68000a42fbd17047c0460008004250
:020000040000fa
:101d7400002380290fdb812901dd83290bd1072171
:101d8400136807338b431900083111601a685b68c4
:0a1d9400026043600123180070474d
:020000040000fa
:101d9e00020000234832d356591e0b4313700423fe
:101dae004268134005d01023134343600120404284
:0a1dbe0070470364c3631800fae7de
:020000040000fa
:101dc80070b50b00150000290dd0131e0bd000288c
:101dd80008d10c008e18012000f0a2f82070013400
:0a1de800b442f8d12b00180070bdc2
:020000040000fa
:101df200f7b5002507000c002e000192019b9e42c0
:101e020001db2800febd626821683800fff7dbffb6
:081e120001362d180834f1e738
:020000040000fa
:101e1a00f7b5002507000c002e000192019b9e4297
:101e2a0001db2800febd626821683800fff783fee7
:081e3a0001362d180834f1e710
:020000040000fa
:101e4200c20f12029d3201000cd001d5494202d4c8
:101e5200013a4900fcd5d205080a0906494100d3d6
:061e620001295041704708
:020000040000fa
:101e6800012370b544689c43651a102d0ad942189d
:101e780019432b431160536008320351416010002d
:061e8800fef74eff70bde5
:020000040000fa
:101e90000fb407b5054b04aa1b6802ca1868019263
:101ea00000f076f803b008bc04b018478c07002097
:020000040000fa
:101eb000064b0130c000c258002a05d10200083a82
:101ec000d21819184a60c2507047c046100400204a
:020000040000fa
:101ed0009d2201000ad002d4013a4900fcd5d20566
:0e1ee000080a0906494100d301295041704704
:020000040000fa
:101ef000496e70757420566f6c74616765203d2063
:101f000025642e2530326420560d000068076c09c8
:101f10004c836a9074a07ac00080688800846c82c8
:081f20000081286e696c2900a4
:020000040000fa
:101f280000b583b000230193012101a8fff760fbee
:0a1f38000028f9d0019803b000bda5
:020000040000fa
:101f420000b583b06b46d87101216b46d81dfff7ef
:0a1f5200b8fc0028f8d003b000bd71
:020000040000fa
:101f5c0010b50400fff71dff002805d1a368e26847
:0a1f6c00a36163619b18a36210bd1e
:020000040000fa
:101f7800044a137802210b431370138c9bb2002b75
:081f8800fbd170470044004248
:020000040000fa
:101f900013b50400019201aafef79cf86368db0602
:081fa00001d50120404216bded
:020000040000fa
:101fa800d0400b1cd1409c46203ad34018435242a3
:101fb80063469340184370479140031c90409c46e9
:101fc800203a9340194352426346d340194370471d
:101fd80010b5002903d1fff791fd203002e0081c5d
:081fe800fff78cfd10bdc0469f
:020000040000fa
:101ff000006810b5002801da002010bdfff75efe72
:06200000431cfad1f8e7d1
:020000040000fa
:1020080010b500f06bf8024b1860586010bdc04660
:04201800840600201a
:020000040000fa
:10201c00c36a10b5002b01d0984710bd0068fff7bc
:04202c0089fdfae749
:020000040000fa
:102030004a424a41802310b55200db00fff784fb7f
:0220400010bdd1
:020000040000fa
:10204200002310b59a4200d110bdcc5cc4540133b8
:02205200f8e7ad
:020000040000fa
:102054000122d2075140014b18470000a10800009b
:020000040000fa
:1020640003001218934200d1704719700133f9e745
:020000040000fa
:1020740003001a78002a01d1181a70470133f8e7cf
:020000040000fa
:1020840010b5fff7bffffff70cfbfff70afb10bd0e
:020000040000fa
:0e2094000300413b192b01d82023184370474d
:020000040000fa
:0e20a2000300613b192b01d85f2318407047e3
:020000040000fa
:0c20b000014b84225a6070470040004140
:020000040000fa
:0c20bc00014b988c80b270470044004239
:020000040000fa
:0a20c80010b50068fff738fd10bde9
:020000040000fa
:0820d200bff35f8f62b6704797
:020000040000fa
:0820da0010b5fff72cf910bd51
:020000040000fa
:0820e4000048704710070020be
:020000040000fa
:0720ec00286e756c6c2900e1
:020000040000fa
:0620f4000120404270478c
:020000040000fa
:0420fa00002070470b
:020000040000fa
:0420fe000020704707
:020000040000fa
:042104007047c0461a
:020000040000fa
:0421080000207047fc
:020000040000fa
:0200000400807a
:04400000ff00fe03bc
:020000040000fa
:0200000400807a
:0440040000fcffffbe
:00000001FF
